:0400160002200000C4
:10024C00D3EF9400EE940040147D6E7C00ED1D7095
:0D025C00011CED4C70F7EF1F70E61E80E3F3
:010269002272
:10028D00438911758DFF758BF6D2ABD2AFD28E220D
:10026A004389108F8D8D8B8F148D15D2AFD2ABD25F
:02027A008E22D2
:0801A5007D017C007FC87E0093
:1001AD008E168F17D3E51F9408E51E94074005E4BE
:1001BD00F51EF51FC3E51F9517E51E95165004D2C4
:1001CD00848002C284ED64014C7005D280C281220C
:0501DD00C280D2812266
:1001E2008E188F19D3E51F9408E51E94074005E485
:1001F200F51EF51FC3E51F9519E51E95185004D28B
:10020200858002C285ED64014C7005C282D28322D0
:05021200D282C283222C
:100217008E1A8F1BD3E51F9408E51E94074005E44B
:10022700F51EF51FC3E51F951BE51E951A5004D251
:10023700958002C295ED64014C7005D292C293225B
:05024700C292D29322D7
:10015D00E4FDFC7F2C7E011201AD0D1201E21D129A
:03016D0002170D69
:100170008E1C8F1DD3E51F9408E51E94074005E4EF
:10018000F51EF51FC3E51F951DE51E951C5004D2F5
:10019000948002C294ED64014C7005C290D2912209
:0501A000D290C2912283
:10001E0030A52030A41D20A31A30A21730A114122F
:10002E0001A51201E21202171201700521E52170DD
:10003E0002052030A52820A42530A32230A21F308F
:10004E00A11C30A30830A20512015D80F512015DDE
:10005E007F011E12024C0521E5217002052030A5FC
:10006E004430A44130A33E20A23B30A13830A31926
:10007E007D017C007F2C7E011201AD1D1201E20D6F
:10008E001202171D12017080E41201A51D1201E269
:10009E000D1202171D1201707F0112024C0521E58F
:1000AE002170020520E521452070127D01FC7FC8DC
:1000BE00FE1201AD1201E2120217120170E4F520D8
:0300CE00F52122F7
:10027C0012026A12028D12001EE4FFFE12024C8062
:01028C00F57C
:03001B00020003DD
:10000300C0E0758DFF758BF6051FE51F7002051E99
:03001300D0E03208
:030000000200D12A
:0C00D100787FE4F6D8FD75812502011847
:1000DD0002027CE493A3F8E493A34003F68001F2BB
:1000ED0008DFF48029E493A3F85407240CC8C33324
:1000FD00C4540F4420C8834004F456800146F6DFF3
:10010D00E4800B0102040810204080900016E47E6C
:10011D00019360BCA3FF543F30E509541FFEE493E7
:10012D00A360010ECF54C025E060A840B8E493A3AE
:10013D00FAE493A3F8E493A3C8C582C8CAC583CAD9
:10014D00F0A3C8C582C8CAC583CADFE9DEE780BE91
:01001A0000E5
:00000001FF
