:1007B900022A00000228000102260000023000007F
:0C07C900021800000222044C0216001965
:0B08B500EF1FAC0670011E4C70F62215
:10079B00D3EF9400EE940040147D6E7C00ED1D7041
:0D07AB00011CED4C70F7EF1F70E61E80E39F
:0107B800221E
:10085000438901E4F58CF58AD2AFD2A9C28CC2B328
:05086000C286C2A722C0
:10082400759850758920758780758DF3758BF3D213
:06083400ACD2AFD28E220F
:1007D600D2B300000000000000000000000000008E
:0A07E60000000000000000C2B32272
:1007F000D2860000000000000000000000000000A1
:0A08000000000000000000C2862284
:10080A00D2A7000000000000000000000000000065
:0A081A0000000000000000C2A72249
:10071200AF8CEFFEAD8A7C00E42DFFEC3EFEE4F5EB
:100722008CF58AAD07AC061202277B9A7A9979D9A1
:10073200783F120003E4FBFA79C8784212010C8F69
:070742002F8E2E8D2D8C2C53
:01074900228D
:10054300E528701AE52924FE600C14600E2402705D
:100553000D1207D680081207F0800312080AE52857
:10056300701AE52924FE600C14600E2402700D201D
:10057300B20A80FB20870580FB30A6FDD28CE528DC
:10058300701AE52924FE600C14600E2402700D30ED
:10059300B20A80FB30870580FB20A6FDC28C1207C0
:1005A30012E4F58CF58AE5287049E52924FE601CE0
:1005B30014602E2402703C852F0B852E0A852D098D
:1005C300852C080529E529702A052822852F0F8502
:1005D3002E0E852D0D852C0C0529E5297015052872
:1005E30022852F13852E12852D11852C1075280039
:0405F3007529012243
:10086500C280D281C282D283C292D293C290D291E7
:010875002260
:10087600D280C281D282C283D292C293D290C291D6
:01088600224F
:05083A007FFA120778AF
:10083F00D280C281C282D283D292C293C290D2910D
:01084F002286
:10088700C280D281D282C283C292D293D290C291C5
:01089700223E
:10089800D280D281D282D283D292D293D290D29174
:0108A800222D
:040774007FE87E0399
:10077800AB07AA06D284D285D295D2941208B5C204
:1007880084C285C295C294C3E5239BFFE5229AFEE5
:030798000208B59F
:1002B800AC16AD17E4120227AB0BAA0AA909A808C5
:1002C8001201A96040403EAC16AD17E4120227ABFC
:1002D8000FAA0EA90DA80C1201A960294027AC1677
:1002E800AD17E4120227AB13AA12A911A810120124
:1002F800A960124010E527452670077F207E03027B
:10030800053C02039AAC16AD17E4120227AB0BAA00
:100318000AA909A8081201A960025031AC16AD1744
:10032800E4120227AB0FAA0EA90DA80C1201A960AE
:100338001C401AAC16AD17E4120227AB13AA12A977
:1003480011A8101201A960054003020438AC16ADCB
:1003580017E4120227AB0FAA0EA90DA80C1201A9C7
:1003680060025036AC16AD17E4120227AB0BAA0A8E
:10037800A909A8081201A96021401FAC16AD17E40D
:10038800120227AB13AA12A911A8101201A9600A18
:100398004008120774120876804BAC16AD17E412A9
:1003A8000227AB13AA12A911A8101201A9600250C2
:1003B8003AAC16AD17E4120227AB0BAA0AA909A892
:1003C800081201A960254023AC16AD17E4120227D4
:1003D800AB0FAA0EA90DA80C1201A9600E400C12B1
:1003E8000774120865E4F526F52722AC16AD17E464
:1003F800120227AB0BAA0AA909A8081201A96002D0
:100408005034AC16AD17E4120227AB0FAA0EA90D93
:10041800A80C1201A96002501DAC16AD17E4120217
:1004280027AB13AA12A911A8101201A96008400647
:10043800120774020876AC16AD17E4120227AB0B4C
:10044800AA0AA909A8081201A960025034AC16AD7D
:1004580017E4120227AB13AA12A911A8101201A9B6
:100468006002501DAC16AD17E4120227AB0FAA0E9E
:10047800A90DA80C1201A960084006120774020809
:1004880065AC16AD17E4120227AB0BAA0AA909A896
:10049800081201A960424040AC16AD17E4120227C9
:1004A800AB0FAA0EA90DA80C1201A960025029AC25
:1004B80016AD17E4120227AB13AA12A911A810123D
:1004C80001A960025012E52745267FE87E037002E5
:1004D8008062120778020887AC16AD17E41202276B
:1004E800AB0BAA0AA909A8081201A960025042ACDC
:1004F80016AD17E4120227AB0FAA0EA90DA80C120D
:1005080001A96002502BAC16AD17E4120227AB13F9
:10051800AA12A911A8101201A960025014E4F52624
:10052800F5271207741208870527E527700C05269A
:0B05380022E4FFFE12077812083F22A9
:1005F70030A51930A41620A31330A21030A10D7E08
:100607000012083A052BE52B7002052A30A5302089
:10061700A42D30A32A30A22730A12430A31730A25B
:10062700147FC87E00120778120865052BE52B702A
:10063700EA052A80E61208767F147E0012077830D2
:10064700A52D30A42A30A32720A22430A12130A32E
:10065700147FC87E00120778120876052BE52B70E9
:10066700ED052A80E91208657F147E00120778E5F8
:0F0677002B452A7004FE12083AE4F52AF52B22CF
:0C08A9001205431205431205430202B879
:10074A0012085020B40F7FE87E031208B50519E598
:10075A001970020518E519451870051205F7800386
:0A076A001208A9E4F518F51980D96A
:10000300EC4D6011E8497017ED33EC3304600DE4F7
:10001300FCFFFEFD22E933E8330470F80202951277
:10002300026058046009E4CC248150062850090278
:10003300029F28400302029CC0E0EB4A7044B9804F
:1000430006D0E0FB02028BEF4E701CBD8008EBFF75
:10005300EAFEE9FD80EBE98DF0A4FEE5F00200EC99
:10006300E9CDF9EAFEEBFFEF89F0A4FCE5F0CE89D8
:10007300F0A42EFFE435F0CD89F0A42DFEE435F095
:100083008067EF4E7005BD80D780C3EF8BF0A4ACC3
:10009300F0EE8BF0A42CFCE435F0F8EF8AF0A42CFE
:1000A300E5F038FCE433CB8DF0A42CFCE5F03BF811
:1000B300EE8AF0A42CFCE5F038F8E433CF89F0A401
:1000C3002CFCE5F038CF3400CE89F0A42FFFE5F007
:1000D3003EFEE433C98DF0A42EFEE5F039CD8AF05F
:1000E300A42FFFE5F03EFEE43DFD33D0E0FB5007D7
:1000F3000BBB000F02029FEC2CFCEF33FFEE33FE31
:06010300ED33FD0202775E
:1001090002029FEC5D046005E85904700302029540
:10011900120260580460F6EC4860F2EC7004FDFECF
:10012900FF22C860DB2481C85009C39860025006C9
:1001390002029C9850CAF582E9294B4A7005AB82A4
:1001490002028B75F0007C1A7880C3EF9BEE9AED62
:1001590099400DC3EF9BFFEE9AFEED99FDE842F041
:10016900DC23ACF0D0E0FFD0E0FED0E0FDAB822094
:10017900E7101BEB60BAEC2CFCEF33FFEE33FEED1E
:1001890033FD020277E803F830E705C0F075F000A7
:10019900EF2FFFEE33FEED33FD40B830E7C280AA02
:1001A90074F8CC6480CCC86480C8F58204604FC3FD
:1001B900EB9FF5F0EA9E42F0E99D42F0E89C45F09C
:1001C900603C501DE5825FFFE582D313CB5BCBF426
:1001D9002B5582FB50280ABA002409B9002008804F
:1001E9001DE5825BFBE582D313CF5FCFF4C3132FE9
:1001F9005582FF50090EBE00050DBD00010CC3EB71
:100209009FF5F0EA9E42F0E99D42F0E89C45F060D6
:0902190007CC4820E701B3EC22F8
:1002220075F020800E75F010800575F0087D007E57
:10023200007F003392D530D5031202AAEC3340106E
:10024200EF33FFEE33FEED33FDEC33FCD5F0ED2260
:0E025200E5F0247EA2D513CC92E7CDCEFF229C
:10026000E9D2E7C933E833F892D5EDD2E7CD33ECE4
:0702700033FC5002B2D5225D
:10027700EC30E7100FBF000C0EBE00080DBD0004E8
:100287000BEB6014A2D5EB13FCED92E7FD2274FF94
:10029700FCFDFEFF22E480F8A2D574FF13FC7D80ED
:0302A700E480EF01
:030000000206866F
:0C068600787FE4F6D8FD7581310206CDC6
:0E02AA00C3E49FFFE49EFEE49DFDE49CFC2265
:1006920002074AE493A3F8E493A34003F68001F22D
:1006A20008DFF48029E493A3F85407240CC8C33369
:1006B200C4540F4420C8834004F456800146F6DF38
:1006C200E4800B01020408102040809007B9E47E08
:1006D200019360BCA3FF543F30E509541FFEE4932D
:1006E200A360010ECF54C025E060A840B8E493A3F4
:1006F200FAE493A3F8E493A3C8C582C8CAC583CA1F
:10070200F0A3C8C582C8CAC583CADFE9DEE780BED6
:0107D5000023
:00000001FF
