:1005EF00021A0001021800000216044C0214001433
:0B060000EF1FAC0670011E4C70F622CC
:10057400438911E4F58CF58AD2AFD2A9C28CC2B3F7
:05058400C286C2A7229F
:10050E00D2B3000000000000000000000000000058
:0A051E0000000000000000C2B3223C
:10052800D28600000000000000000000000000006B
:0A05380000000000000000C286224F
:10054200D2A7000000000000000000000000000030
:0A05520000000000000000C2A72214
:1004D600AF8CEFFEAD8A7C00E42DFFEC3EFEE4F52A
:1004E6008CF58AAD07AC061202277B9A7A9979D9E0
:1004F600783F120003E4FBFA79C8784212010C8FA8
:070506001F8E1E8D1D8C1CD1
:01050D0022CB
:10039600E51A701AE51B24FE600C14600E24027028
:1003A6000D12050E80081205288003120542E51A73
:1003B600701AE51B24FE600C14600E2402700D20DA
:1003C600B20A80FB20870580FB30A6FDD28CE51A99
:1003D600701AE51B24FE600C14600E2402700D30AA
:1003E600B20A80FB30870580FB20A6FDC28C120472
:1003F600D6E4F58CF58AE51A7049E51B24FE601CE7
:1004060014602E2402703C851F0B851E0A851D096B
:10041600851C08051BE51B702A051A22851F0F85FA
:100426001E0E851D0D851C0C051BE51B7015051A7A
:1004360022851F13851E12851D11851C10751A0035
:04044600751B0122FF
:10058900C280D281C282D283C292D293C290D291C6
:01059900223F
:10059A00D280C281D282C283D292C293D290C291B5
:0105AA00222E
:1005AB00D280C281C282D283D292C293C290D291A4
:0105BB00221D
:1005BC00C280D281D282C283C292D293D290C29193
:0105CC00220C
:04055C007FE87E03B3
:10056000D284D285D295D294120600C284C285C2AA
:0405700095C294227A
:1005CD00D280D281D282D283D292D293D290D29142
:0105DD0022FB
:1002B800AC14AD15E4120227AB0BAA0AA909A808C9
:1002C8001201A960025034AC14AD15E4120227AB38
:1002D8000FAA0EA90DA80C1201A9601F401DAC148D
:1002E800AD15E4120227AB13AA12A911A810120126
:1002F800A96008400612055C1205ABAC14AD15E404
:10030800120227AB0BAA0AA909A8081201A960348E
:100318004032AC14AD15E4120227AB0FAA0EA90D9A
:10032800A80C1201A9501DAC14AD15E4120227AB9C
:1003380013AA12A911A8101201A9600840061205F3
:100348005C120589AC14AD15E4120227AB0BAA0A9E
:10035800A909A8081201A960344032AC14AD15E40B
:10036800120227AB0FAA0EA90DA80C1201A9601D35
:10037800401BAC14AD15E4120227AB13AA12A91145
:0E038800A8101201A9500612055C12059A2257
:1005DE001205741203961203961203961202B88035
:0105EE00F21A
:10000300EC4D6011E8497017ED33EC3304600DE4F7
:10001300FCFFFEFD22E933E8330470F80202951277
:10002300026058046009E4CC248150062850090278
:10003300029F28400302029CC0E0EB4A7044B9804F
:1000430006D0E0FB02028BEF4E701CBD8008EBFF75
:10005300EAFEE9FD80EBE98DF0A4FEE5F00200EC99
:10006300E9CDF9EAFEEBFFEF89F0A4FCE5F0CE89D8
:10007300F0A42EFFE435F0CD89F0A42DFEE435F095
:100083008067EF4E7005BD80D780C3EF8BF0A4ACC3
:10009300F0EE8BF0A42CFCE435F0F8EF8AF0A42CFE
:1000A300E5F038FCE433CB8DF0A42CFCE5F03BF811
:1000B300EE8AF0A42CFCE5F038F8E433CF89F0A401
:1000C3002CFCE5F038CF3400CE89F0A42FFFE5F007
:1000D3003EFEE433C98DF0A42EFEE5F039CD8AF05F
:1000E300A42FFFE5F03EFEE43DFD33D0E0FB5007D7
:1000F3000BBB000F02029FEC2CFCEF33FFEE33FE31
:06010300ED33FD0202775E
:1001090002029FEC5D046005E85904700302029540
:10011900120260580460F6EC4860F2EC7004FDFECF
:10012900FF22C860DB2481C85009C39860025006C9
:1001390002029C9850CAF582E9294B4A7005AB82A4
:1001490002028B75F0007C1A7880C3EF9BEE9AED62
:1001590099400DC3EF9BFFEE9AFEED99FDE842F041
:10016900DC23ACF0D0E0FFD0E0FED0E0FDAB822094
:10017900E7101BEB60BAEC2CFCEF33FFEE33FEED1E
:1001890033FD020277E803F830E705C0F075F000A7
:10019900EF2FFFEE33FEED33FD40B830E7C280AA02
:1001A90074F8CC6480CCC86480C8F58204604FC3FD
:1001B900EB9FF5F0EA9E42F0E99D42F0E89C45F09C
:1001C900603C501DE5825FFFE582D313CB5BCBF426
:1001D9002B5582FB50280ABA002409B9002008804F
:1001E9001DE5825BFBE582D313CF5FCFF4C3132FE9
:1001F9005582FF50090EBE00050DBD00010CC3EB71
:100209009FF5F0EA9E42F0E99D42F0E89C45F060D6
:0902190007CC4820E701B3EC22F8
:1002220075F020800E75F010800575F0087D007E57
:10023200007F003392D530D5031202AAEC3340106E
:10024200EF33FFEE33FEED33FDEC33FCD5F0ED2260
:0E025200E5F0247EA2D513CC92E7CDCEFF229C
:10026000E9D2E7C933E833F892D5EDD2E7CD33ECE4
:0702700033FC5002B2D5225D
:10027700EC30E7100FBF000C0EBE00080DBD0004E8
:100287000BEB6014A2D5EB13FCED92E7FD2274FF94
:10029700FCFDFEFF22E480F8A2D574FF13FC7D80ED
:0302A700E480EF01
:0300000002044AAD
:0C044A00787FE4F6D8FD75811F02049154
:0E02AA00C3E49FFFE49EFEE49DFDE49CFC2265
:100456000205DEE493A3F8E493A34003F68001F2D9
:1004660008DFF48029E493A3F85407240CC8C333A7
:10047600C4540F4420C8834004F456800146F6DF76
:10048600E4800B01020408102040809005EFE47E12
:10049600019360BCA3FF543F30E509541FFEE4936B
:1004A600A360010ECF54C025E060A840B8E493A332
:1004B600FAE493A3F8E493A3C8C582C8CAC583CA5D
:1004C600F0A3C8C582C8CAC583CADFE9DEE780BE15
:0105FF0000FB
:00000001FF
