:04020100020803E804
:0B01F600EF1FAC0670011E4C70F622DB
:10000300D3EF9400EE940040147D6E7C00ED1D70E0
:0D001300011CED4C70F7EF1F70E61E80E33E
:0100200022BD
:10016900759850758920758780758DF3758BF3D2D5
:06017900ACD2AFD28E22D1
:10017F00C280D281C282D283C292D293C290D291D4
:01018F00224D
:10019000D280C281D282C283D292C293D290C291C3
:0101A000223C
:1001A100D280C281C282D283D292C293C290D291B2
:0101B100222B
:1001B200C280D281D282C283C292D293D290C291A1
:0101C200221A
:1001C300D280D281D282D283D292D293D290D29150
:0101D3002209
:1001D400D280C281D282C283C292D293C290D2917F
:0101E40022F8
:1001E500C280D281C282D283D292C293D290C2916E
:0101F50022E7
:04012A007FC87E000C
:10012E00AB07AA06D284D285D295D2941201F6C21A
:10013E0084C285C295C294C3E5099BFFE5089AFE69
:03014E000201F6B5
:1000B200120169E50A70FCE50B249FB4070050F3B6
:1000C2009000D075F003A4C58325F0C583730200A8
:1000D200E50200ED0200F50200FD02010502011138
:1000E20002011D12012A1201A180C812012A120165
:1000F200B280C012012A12017F80B812012A1201B5
:100102009080B07F647E0012012E1201C380A47F12
:10011200907E0112012E1201D480987F907E0112EE
:08012200012E1201E50200B5F7
:0300230002015186
:10015100C0D075D000C007309809C298AF99750A10
:08016100008F0BD007D0D03253
:03000000020026D5
:0C002600787FE4F6D8FD75810B02006DB8
:100032000200B2E493A3F8E493A34003F68001F232
:1000420008DFF48029E493A3F85407240CC8C333CF
:10005200C4540F4420C8834004F456800146F6DF9E
:10006200E4800B0102040810204080900201E47E2B
:10007200019360BCA3FF543F30E509541FFEE49393
:10008200A360010ECF54C025E060A840B8E493A35A
:10009200FAE493A3F8E493A3C8C582C8CAC583CA85
:1000A200F0A3C8C582C8CAC583CADFE9DEE780BE3D
:0102050000F8
:00000001FF
